{
	"FundMe.sol": {
		"FundMe": {
			"abi": [
				{
					"inputs": [],
					"stateMutability": "nonpayable",
					"type": "constructor"
				},
				{
					"stateMutability": "payable",
					"type": "fallback"
				},
				{
					"inputs": [],
					"name": "MINIMUM_USD",
					"outputs": [
						{
							"internalType": "uint256",
							"name": "",
							"type": "uint256"
						}
					],
					"stateMutability": "view",
					"type": "function"
				},
				{
					"inputs": [],
					"name": "balance",
					"outputs": [
						{
							"internalType": "uint256",
							"name": "",
							"type": "uint256"
						}
					],
					"stateMutability": "view",
					"type": "function"
				},
				{
					"inputs": [],
					"name": "fund",
					"outputs": [],
					"stateMutability": "payable",
					"type": "function"
				},
				{
					"inputs": [],
					"name": "i_owner",
					"outputs": [
						{
							"internalType": "address",
							"name": "",
							"type": "address"
						}
					],
					"stateMutability": "view",
					"type": "function"
				},
				{
					"inputs": [],
					"name": "withdrow",
					"outputs": [],
					"stateMutability": "nonpayable",
					"type": "function"
				},
				{
					"stateMutability": "payable",
					"type": "receive"
				}
			],
			"devdoc": {
				"kind": "dev",
				"methods": {},
				"version": 1
			},
			"evm": {
				"assembly": "    /* \"FundMe.sol\":105:1435  contract FundMe{... */\n  mstore(0x40, 0xa0)\n    /* \"FundMe.sol\":184:205  address(this).balance */\n  selfbalance\n    /* \"FundMe.sol\":164:205  uint public balance=address(this).balance */\n  0x00\n  sstore\n    /* \"FundMe.sol\":382:430  constructor(){... */\n  callvalue\n  dup1\n  iszero\n  tag_1\n  jumpi\n  0x00\n  dup1\n  revert\ntag_1:\n  pop\n    /* \"FundMe.sol\":413:423  msg.sender */\n  caller\n    /* \"FundMe.sol\":405:423  i_owner=msg.sender */\n  0xffffffffffffffffffffffffffffffffffffffff\n  and\n  0x80\n  dup2\n  0xffffffffffffffffffffffffffffffffffffffff\n  and\n  dup2\n  mstore\n  pop\n  pop\n    /* \"FundMe.sol\":105:1435  contract FundMe{... */\n  mload(0x80)\n  codecopy(0x00, dataOffset(sub_0), dataSize(sub_0))\n  0x00\n  assignImmutable(\"0x64e604787cbf194841e7b68d7cd28786f6c9a0a3ab9f8b0a0e87cb4387ab0107\")\n  return(0x00, dataSize(sub_0))\nstop\n\nsub_0: assembly {\n        /* \"FundMe.sol\":105:1435  contract FundMe{... */\n      mstore(0x40, 0x80)\n      jumpi(tag_1, lt(calldatasize, 0x04))\n      shr(0xe0, calldataload(0x00))\n      dup1\n      0x3b874521\n      eq\n      tag_3\n      jumpi\n      dup1\n      0x6b69a592\n      eq\n      tag_4\n      jumpi\n      dup1\n      0xb60d4288\n      eq\n      tag_5\n      jumpi\n      dup1\n      0xb69ef8a8\n      eq\n      tag_6\n      jumpi\n      dup1\n      0xdba6335f\n      eq\n      tag_7\n      jumpi\n      jump(tag_2)\n    tag_1:\n      jumpi(tag_2, calldatasize)\n        /* \"FundMe.sol\":1382:1388  fund() */\n      tag_10\n        /* \"FundMe.sol\":1382:1386  fund */\n      tag_11\n        /* \"FundMe.sol\":1382:1388  fund() */\n      jump\t// in\n    tag_10:\n        /* \"FundMe.sol\":105:1435  contract FundMe{... */\n      stop\n    tag_2:\n        /* \"FundMe.sol\":1425:1431  fund() */\n      tag_14\n        /* \"FundMe.sol\":1425:1429  fund */\n      tag_11\n        /* \"FundMe.sol\":1425:1431  fund() */\n      jump\t// in\n    tag_14:\n        /* \"FundMe.sol\":105:1435  contract FundMe{... */\n      stop\n        /* \"FundMe.sol\":667:1231  function withdrow() public {... */\n    tag_3:\n      callvalue\n      dup1\n      iszero\n      tag_15\n      jumpi\n      0x00\n      dup1\n      revert\n    tag_15:\n      pop\n      tag_16\n      tag_17\n      jump\t// in\n    tag_16:\n      stop\n        /* \"FundMe.sol\":211:248  uint public constant MINIMUM_USD=5e18 */\n    tag_4:\n      callvalue\n      dup1\n      iszero\n      tag_18\n      jumpi\n      0x00\n      dup1\n      revert\n    tag_18:\n      pop\n      tag_19\n      tag_20\n      jump\t// in\n    tag_19:\n      mload(0x40)\n      tag_21\n      swap2\n      swap1\n      tag_22\n      jump\t// in\n    tag_21:\n      mload(0x40)\n      dup1\n      swap2\n      sub\n      swap1\n      return\n        /* \"FundMe.sol\":435:662  function fund()public payable { ... */\n    tag_5:\n      tag_23\n      tag_11\n      jump\t// in\n    tag_23:\n      stop\n        /* \"FundMe.sol\":164:205  uint public balance=address(this).balance */\n    tag_6:\n      callvalue\n      dup1\n      iszero\n      tag_24\n      jumpi\n      0x00\n      dup1\n      revert\n    tag_24:\n      pop\n      tag_25\n      tag_26\n      jump\t// in\n    tag_25:\n      mload(0x40)\n      tag_27\n      swap2\n      swap1\n      tag_22\n      jump\t// in\n    tag_27:\n      mload(0x40)\n      dup1\n      swap2\n      sub\n      swap1\n      return\n        /* \"FundMe.sol\":344:376  address public immutable i_owner */\n    tag_7:\n      callvalue\n      dup1\n      iszero\n      tag_28\n      jumpi\n      0x00\n      dup1\n      revert\n    tag_28:\n      pop\n      tag_29\n      tag_30\n      jump\t// in\n    tag_29:\n      mload(0x40)\n      tag_31\n      swap2\n      swap1\n      tag_32\n      jump\t// in\n    tag_31:\n      mload(0x40)\n      dup1\n      swap2\n      sub\n      swap1\n      return\n        /* \"FundMe.sol\":435:662  function fund()public payable { ... */\n    tag_11:\n        /* \"FundMe.sol\":244:248  5e18 */\n      0x4563918244f40000\n        /* \"FundMe.sol\":484:513  msg.value.getConversionRate() */\n      tag_34\n        /* \"FundMe.sol\":484:493  msg.value */\n      callvalue\n        /* \"FundMe.sol\":484:511  msg.value.getConversionRate */\n      tag_35\n        /* \"FundMe.sol\":484:513  msg.value.getConversionRate() */\n      jump\t// in\n    tag_34:\n        /* \"FundMe.sol\":484:525  msg.value.getConversionRate()>MINIMUM_USD */\n      gt\n        /* \"FundMe.sol\":476:546  require(msg.value.getConversionRate()>MINIMUM_USD,\"don't send enough\") */\n      tag_36\n      jumpi\n      mload(0x40)\n      0x08c379a000000000000000000000000000000000000000000000000000000000\n      dup2\n      mstore\n      0x04\n      add\n      tag_37\n      swap1\n      tag_38\n      jump\t// in\n    tag_37:\n      mload(0x40)\n      dup1\n      swap2\n      sub\n      swap1\n      revert\n    tag_36:\n        /* \"FundMe.sol\":556:563  funders */\n      0x01\n        /* \"FundMe.sol\":569:579  msg.sender */\n      caller\n        /* \"FundMe.sol\":556:580  funders.push(msg.sender) */\n      swap1\n      dup1\n      0x01\n      dup2\n      sload\n      add\n      dup1\n      dup3\n      sstore\n      dup1\n      swap2\n      pop\n      pop\n      0x01\n      swap1\n      sub\n      swap1\n      0x00\n      mstore\n      keccak256(0x00, 0x20)\n      add\n      0x00\n      swap1\n      swap2\n      swap1\n      swap2\n      swap1\n      swap2\n      0x0100\n      exp\n      dup2\n      sload\n      dup2\n      0xffffffffffffffffffffffffffffffffffffffff\n      mul\n      not\n      and\n      swap1\n      dup4\n      0xffffffffffffffffffffffffffffffffffffffff\n      and\n      mul\n      or\n      swap1\n      sstore\n      pop\n        /* \"FundMe.sol\":646:655  msg.value */\n      callvalue\n        /* \"FundMe.sol\":618:633  addressToAmount */\n      0x02\n        /* \"FundMe.sol\":618:645  addressToAmount[msg.sender] */\n      0x00\n        /* \"FundMe.sol\":634:644  msg.sender */\n      caller\n        /* \"FundMe.sol\":618:645  addressToAmount[msg.sender] */\n      0xffffffffffffffffffffffffffffffffffffffff\n      and\n      0xffffffffffffffffffffffffffffffffffffffff\n      and\n      dup2\n      mstore\n      0x20\n      add\n      swap1\n      dup2\n      mstore\n      0x20\n      add\n      0x00\n      keccak256\n      sload\n        /* \"FundMe.sol\":618:655  addressToAmount[msg.sender]+msg.value */\n      tag_40\n      swap2\n      swap1\n      tag_41\n      jump\t// in\n    tag_40:\n        /* \"FundMe.sol\":590:605  addressToAmount */\n      0x02\n        /* \"FundMe.sol\":590:617  addressToAmount[msg.sender] */\n      0x00\n        /* \"FundMe.sol\":606:616  msg.sender */\n      caller\n        /* \"FundMe.sol\":590:617  addressToAmount[msg.sender] */\n      0xffffffffffffffffffffffffffffffffffffffff\n      and\n      0xffffffffffffffffffffffffffffffffffffffff\n      and\n      dup2\n      mstore\n      0x20\n      add\n      swap1\n      dup2\n      mstore\n      0x20\n      add\n      0x00\n      keccak256\n        /* \"FundMe.sol\":590:655  addressToAmount[msg.sender]=addressToAmount[msg.sender]+msg.value */\n      dup2\n      swap1\n      sstore\n      pop\n        /* \"FundMe.sol\":435:662  function fund()public payable { ... */\n      jump\t// out\n        /* \"FundMe.sol\":667:1231  function withdrow() public {... */\n    tag_17:\n        /* \"FundMe.sol\":708:724  uint funderIndex */\n      0x00\n        /* \"FundMe.sol\":704:867  for(uint funderIndex=0;funderIndex<funders.length;funderIndex++){... */\n    tag_43:\n        /* \"FundMe.sol\":739:746  funders */\n      0x01\n        /* \"FundMe.sol\":739:753  funders.length */\n      dup1\n      sload\n      swap1\n      pop\n        /* \"FundMe.sol\":727:738  funderIndex */\n      dup2\n        /* \"FundMe.sol\":727:753  funderIndex<funders.length */\n      lt\n        /* \"FundMe.sol\":704:867  for(uint funderIndex=0;funderIndex<funders.length;funderIndex++){... */\n      iszero\n      tag_44\n      jumpi\n        /* \"FundMe.sol\":782:796  address funder */\n      0x00\n        /* \"FundMe.sol\":797:804  funders */\n      0x01\n        /* \"FundMe.sol\":805:816  funderIndex */\n      dup3\n        /* \"FundMe.sol\":797:817  funders[funderIndex] */\n      dup2\n      sload\n      dup2\n      lt\n      tag_46\n      jumpi\n      tag_47\n      tag_48\n      jump\t// in\n    tag_47:\n    tag_46:\n      swap1\n      0x00\n      mstore\n      keccak256(0x00, 0x20)\n      add\n      0x00\n      swap1\n      sload\n      swap1\n      0x0100\n      exp\n      swap1\n      div\n      0xffffffffffffffffffffffffffffffffffffffff\n      and\n        /* \"FundMe.sol\":782:817  address funder=funders[funderIndex] */\n      swap1\n      pop\n        /* \"FundMe.sol\":855:856  0 */\n      0x00\n        /* \"FundMe.sol\":831:846  addressToAmount */\n      0x02\n        /* \"FundMe.sol\":831:854  addressToAmount[funder] */\n      0x00\n        /* \"FundMe.sol\":847:853  funder */\n      dup4\n        /* \"FundMe.sol\":831:854  addressToAmount[funder] */\n      0xffffffffffffffffffffffffffffffffffffffff\n      and\n      0xffffffffffffffffffffffffffffffffffffffff\n      and\n      dup2\n      mstore\n      0x20\n      add\n      swap1\n      dup2\n      mstore\n      0x20\n      add\n      0x00\n      keccak256\n        /* \"FundMe.sol\":831:856  addressToAmount[funder]=0 */\n      dup2\n      swap1\n      sstore\n      pop\n        /* \"FundMe.sol\":768:867  {... */\n      pop\n        /* \"FundMe.sol\":754:767  funderIndex++ */\n      dup1\n      dup1\n      0x01\n      add\n      swap2\n      pop\n      pop\n        /* \"FundMe.sol\":704:867  for(uint funderIndex=0;funderIndex<funders.length;funderIndex++){... */\n      jump(tag_43)\n    tag_44:\n      pop\n        /* \"FundMe.sol\":898:899  0 */\n      0x00\n        /* \"FundMe.sol\":884:900  new address[](0) */\n      0xffffffffffffffff\n      dup2\n      gt\n      iszero\n      tag_50\n      jumpi\n      tag_51\n      tag_52\n      jump\t// in\n    tag_51:\n    tag_50:\n      mload(0x40)\n      swap1\n      dup1\n      dup3\n      mstore\n      dup1\n      0x20\n      mul\n      0x20\n      add\n      dup3\n      add\n      0x40\n      mstore\n      dup1\n      iszero\n      tag_53\n      jumpi\n      dup2\n      0x20\n      add\n      0x20\n      dup3\n      mul\n      dup1\n      calldatasize\n      dup4\n      calldatacopy\n      dup1\n      dup3\n      add\n      swap2\n      pop\n      pop\n      swap1\n      pop\n    tag_53:\n      pop\n        /* \"FundMe.sol\":876:883  funders */\n      0x01\n        /* \"FundMe.sol\":876:900  funders=new address[](0) */\n      swap1\n      dup1\n      mload\n      swap1\n      0x20\n      add\n      swap1\n      tag_54\n      swap3\n      swap2\n      swap1\n      tag_55\n      jump\t// in\n    tag_54:\n      pop\n        /* \"FundMe.sol\":919:929  msg.sender */\n      caller\n        /* \"FundMe.sol\":911:939  payable(msg.sender).transfer */\n      0xffffffffffffffffffffffffffffffffffffffff\n      and\n        /* \"FundMe.sol\":911:962  payable(msg.sender).transfer(address(this).balance) */\n      0x08fc\n        /* \"FundMe.sol\":940:961  address(this).balance */\n      selfbalance\n        /* \"FundMe.sol\":911:962  payable(msg.sender).transfer(address(this).balance) */\n      swap1\n      dup2\n      iszero\n      mul\n      swap1\n      mload(0x40)\n      0x00\n      mload(0x40)\n      dup1\n      dup4\n      sub\n      dup2\n      dup6\n      dup9\n      dup9\n      call\n      swap4\n      pop\n      pop\n      pop\n      pop\n      iszero\n      dup1\n      iszero\n      tag_57\n      jumpi\n      returndatasize\n      0x00\n      dup1\n      returndatacopy\n      revert(0x00, returndatasize)\n    tag_57:\n      pop\n        /* \"FundMe.sol\":667:1231  function withdrow() public {... */\n      jump\t// out\n        /* \"FundMe.sol\":211:248  uint public constant MINIMUM_USD=5e18 */\n    tag_20:\n        /* \"FundMe.sol\":244:248  5e18 */\n      0x4563918244f40000\n        /* \"FundMe.sol\":211:248  uint public constant MINIMUM_USD=5e18 */\n      dup2\n      jump\t// out\n        /* \"FundMe.sol\":164:205  uint public balance=address(this).balance */\n    tag_26:\n      sload(0x00)\n      dup2\n      jump\t// out\n        /* \"FundMe.sol\":344:376  address public immutable i_owner */\n    tag_30:\n      immutable(\"0x64e604787cbf194841e7b68d7cd28786f6c9a0a3ab9f8b0a0e87cb4387ab0107\")\n      dup2\n      jump\t// out\n        /* \"/PriceConverter.sol\":459:605  function getConversionRate(uint ethCount)internal view returns(uint){... */\n    tag_35:\n        /* \"/PriceConverter.sol\":522:526  uint */\n      0x00\n        /* \"/PriceConverter.sol\":537:547  uint price */\n      dup1\n        /* \"/PriceConverter.sol\":572:576  1e18 */\n      0x0de0b6b3a7640000\n        /* \"/PriceConverter.sol\":562:570  ethCount */\n      dup4\n        /* \"/PriceConverter.sol\":551:561  getPrice() */\n      tag_59\n        /* \"/PriceConverter.sol\":551:559  getPrice */\n      tag_60\n        /* \"/PriceConverter.sol\":551:561  getPrice() */\n      jump\t// in\n    tag_59:\n        /* \"/PriceConverter.sol\":551:570  getPrice()*ethCount */\n      tag_61\n      swap2\n      swap1\n      tag_62\n      jump\t// in\n    tag_61:\n        /* \"/PriceConverter.sol\":550:576  (getPrice()*ethCount)/1e18 */\n      tag_63\n      swap2\n      swap1\n      tag_64\n      jump\t// in\n    tag_63:\n        /* \"/PriceConverter.sol\":537:576  uint price = (getPrice()*ethCount)/1e18 */\n      swap1\n      pop\n        /* \"/PriceConverter.sol\":593:598  price */\n      dup1\n        /* \"/PriceConverter.sol\":586:598  return price */\n      swap2\n      pop\n      pop\n        /* \"/PriceConverter.sol\":459:605  function getConversionRate(uint ethCount)internal view returns(uint){... */\n      swap2\n      swap1\n      pop\n      jump\t// out\n        /* \"/PriceConverter.sol\":199:454  function getPrice()internal view returns(uint){... */\n    tag_60:\n        /* \"/PriceConverter.sol\":240:244  uint */\n      0x00\n        /* \"/PriceConverter.sol\":255:286  AggregatorV3Interface priceFeed */\n      dup1\n        /* \"/PriceConverter.sol\":309:351  0x694AA1769357215DE4FAC081bf1f309aDC325306 */\n      0x694aa1769357215de4fac081bf1f309adc325306\n        /* \"/PriceConverter.sol\":255:352  AggregatorV3Interface priceFeed=AggregatorV3Interface(0x694AA1769357215DE4FAC081bf1f309aDC325306) */\n      swap1\n      pop\n        /* \"/PriceConverter.sol\":365:378  int256 answer */\n      0x00\n        /* \"/PriceConverter.sol\":386:395  priceFeed */\n      dup2\n        /* \"/PriceConverter.sol\":386:411  priceFeed.latestRoundData */\n      0xffffffffffffffffffffffffffffffffffffffff\n      and\n      0xfeaf968c\n        /* \"/PriceConverter.sol\":386:413  priceFeed.latestRoundData() */\n      mload(0x40)\n      dup2\n      0xffffffff\n      and\n      0xe0\n      shl\n      dup2\n      mstore\n      0x04\n      add\n      0xa0\n      mload(0x40)\n      dup1\n      dup4\n      sub\n      dup2\n      dup7\n      gas\n      staticcall\n      iszero\n      dup1\n      iszero\n      tag_67\n      jumpi\n      returndatasize\n      0x00\n      dup1\n      returndatacopy\n      revert(0x00, returndatasize)\n    tag_67:\n      pop\n      pop\n      pop\n      pop\n      mload(0x40)\n      returndatasize\n      not(0x1f)\n      0x1f\n      dup3\n      add\n      and\n      dup3\n      add\n      dup1\n      0x40\n      mstore\n      pop\n      dup2\n      add\n      swap1\n      tag_68\n      swap2\n      swap1\n      tag_69\n      jump\t// in\n    tag_68:\n        /* \"/PriceConverter.sol\":362:413  (, int256 answer, , , )=priceFeed.latestRoundData() */\n      pop\n      pop\n      pop\n      swap2\n      pop\n      pop\n        /* \"/PriceConverter.sol\":442:446  1e10 */\n      0x02540be400\n        /* \"/PriceConverter.sol\":435:441  answer */\n      dup2\n        /* \"/PriceConverter.sol\":435:446  answer*1e10 */\n      tag_70\n      swap2\n      swap1\n      tag_71\n      jump\t// in\n    tag_70:\n        /* \"/PriceConverter.sol\":423:447  return uint(answer*1e10) */\n      swap3\n      pop\n      pop\n      pop\n        /* \"/PriceConverter.sol\":199:454  function getPrice()internal view returns(uint){... */\n      swap1\n      jump\t// out\n    tag_55:\n      dup3\n      dup1\n      sload\n      dup3\n      dup3\n      sstore\n      swap1\n      0x00\n      mstore\n      keccak256(0x00, 0x20)\n      swap1\n      dup2\n      add\n      swap3\n      dup3\n      iszero\n      tag_72\n      jumpi\n      swap2\n      0x20\n      mul\n      dup3\n      add\n    tag_73:\n      dup3\n      dup2\n      gt\n      iszero\n      tag_74\n      jumpi\n      dup3\n      mload\n      dup3\n      exp(0x0100, 0x00)\n      dup2\n      sload\n      dup2\n      0xffffffffffffffffffffffffffffffffffffffff\n      mul\n      not\n      and\n      swap1\n      dup4\n      0xffffffffffffffffffffffffffffffffffffffff\n      and\n      mul\n      or\n      swap1\n      sstore\n      pop\n      swap2\n      0x20\n      add\n      swap2\n      swap1\n      0x01\n      add\n      swap1\n      jump(tag_73)\n    tag_74:\n    tag_72:\n      pop\n      swap1\n      pop\n      tag_75\n      swap2\n      swap1\n      tag_76\n      jump\t// in\n    tag_75:\n      pop\n      swap1\n      jump\t// out\n    tag_76:\n    tag_77:\n      dup1\n      dup3\n      gt\n      iszero\n      tag_78\n      jumpi\n      0x00\n      dup2\n      0x00\n      swap1\n      sstore\n      pop\n      0x01\n      add\n      jump(tag_77)\n    tag_78:\n      pop\n      swap1\n      jump\t// out\n        /* \"#utility.yul\":7:84   */\n    tag_79:\n        /* \"#utility.yul\":44:51   */\n      0x00\n        /* \"#utility.yul\":73:78   */\n      dup2\n        /* \"#utility.yul\":62:78   */\n      swap1\n      pop\n        /* \"#utility.yul\":7:84   */\n      swap2\n      swap1\n      pop\n      jump\t// out\n        /* \"#utility.yul\":90:208   */\n    tag_80:\n        /* \"#utility.yul\":177:201   */\n      tag_103\n        /* \"#utility.yul\":195:200   */\n      dup2\n        /* \"#utility.yul\":177:201   */\n      tag_79\n      jump\t// in\n    tag_103:\n        /* \"#utility.yul\":172:175   */\n      dup3\n        /* \"#utility.yul\":165:202   */\n      mstore\n        /* \"#utility.yul\":90:208   */\n      pop\n      pop\n      jump\t// out\n        /* \"#utility.yul\":214:436   */\n    tag_22:\n        /* \"#utility.yul\":307:311   */\n      0x00\n        /* \"#utility.yul\":345:347   */\n      0x20\n        /* \"#utility.yul\":334:343   */\n      dup3\n        /* \"#utility.yul\":330:348   */\n      add\n        /* \"#utility.yul\":322:348   */\n      swap1\n      pop\n        /* \"#utility.yul\":358:429   */\n      tag_105\n        /* \"#utility.yul\":426:427   */\n      0x00\n        /* \"#utility.yul\":415:424   */\n      dup4\n        /* \"#utility.yul\":411:428   */\n      add\n        /* \"#utility.yul\":402:408   */\n      dup5\n        /* \"#utility.yul\":358:429   */\n      tag_80\n      jump\t// in\n    tag_105:\n        /* \"#utility.yul\":214:436   */\n      swap3\n      swap2\n      pop\n      pop\n      jump\t// out\n        /* \"#utility.yul\":442:568   */\n    tag_81:\n        /* \"#utility.yul\":479:486   */\n      0x00\n        /* \"#utility.yul\":519:561   */\n      0xffffffffffffffffffffffffffffffffffffffff\n        /* \"#utility.yul\":512:517   */\n      dup3\n        /* \"#utility.yul\":508:562   */\n      and\n        /* \"#utility.yul\":497:562   */\n      swap1\n      pop\n        /* \"#utility.yul\":442:568   */\n      swap2\n      swap1\n      pop\n      jump\t// out\n        /* \"#utility.yul\":574:670   */\n    tag_82:\n        /* \"#utility.yul\":611:618   */\n      0x00\n        /* \"#utility.yul\":640:664   */\n      tag_108\n        /* \"#utility.yul\":658:663   */\n      dup3\n        /* \"#utility.yul\":640:664   */\n      tag_81\n      jump\t// in\n    tag_108:\n        /* \"#utility.yul\":629:664   */\n      swap1\n      pop\n        /* \"#utility.yul\":574:670   */\n      swap2\n      swap1\n      pop\n      jump\t// out\n        /* \"#utility.yul\":676:794   */\n    tag_83:\n        /* \"#utility.yul\":763:787   */\n      tag_110\n        /* \"#utility.yul\":781:786   */\n      dup2\n        /* \"#utility.yul\":763:787   */\n      tag_82\n      jump\t// in\n    tag_110:\n        /* \"#utility.yul\":758:761   */\n      dup3\n        /* \"#utility.yul\":751:788   */\n      mstore\n        /* \"#utility.yul\":676:794   */\n      pop\n      pop\n      jump\t// out\n        /* \"#utility.yul\":800:1022   */\n    tag_32:\n        /* \"#utility.yul\":893:897   */\n      0x00\n        /* \"#utility.yul\":931:933   */\n      0x20\n        /* \"#utility.yul\":920:929   */\n      dup3\n        /* \"#utility.yul\":916:934   */\n      add\n        /* \"#utility.yul\":908:934   */\n      swap1\n      pop\n        /* \"#utility.yul\":944:1015   */\n      tag_112\n        /* \"#utility.yul\":1012:1013   */\n      0x00\n        /* \"#utility.yul\":1001:1010   */\n      dup4\n        /* \"#utility.yul\":997:1014   */\n      add\n        /* \"#utility.yul\":988:994   */\n      dup5\n        /* \"#utility.yul\":944:1015   */\n      tag_83\n      jump\t// in\n    tag_112:\n        /* \"#utility.yul\":800:1022   */\n      swap3\n      swap2\n      pop\n      pop\n      jump\t// out\n        /* \"#utility.yul\":1028:1197   */\n    tag_84:\n        /* \"#utility.yul\":1112:1123   */\n      0x00\n        /* \"#utility.yul\":1146:1152   */\n      dup3\n        /* \"#utility.yul\":1141:1144   */\n      dup3\n        /* \"#utility.yul\":1134:1153   */\n      mstore\n        /* \"#utility.yul\":1186:1190   */\n      0x20\n        /* \"#utility.yul\":1181:1184   */\n      dup3\n        /* \"#utility.yul\":1177:1191   */\n      add\n        /* \"#utility.yul\":1162:1191   */\n      swap1\n      pop\n        /* \"#utility.yul\":1028:1197   */\n      swap3\n      swap2\n      pop\n      pop\n      jump\t// out\n        /* \"#utility.yul\":1203:1370   */\n    tag_85:\n        /* \"#utility.yul\":1343:1362   */\n      0x646f6e27742073656e6420656e6f756768000000000000000000000000000000\n        /* \"#utility.yul\":1339:1340   */\n      0x00\n        /* \"#utility.yul\":1331:1337   */\n      dup3\n        /* \"#utility.yul\":1327:1341   */\n      add\n        /* \"#utility.yul\":1320:1363   */\n      mstore\n        /* \"#utility.yul\":1203:1370   */\n      pop\n      jump\t// out\n        /* \"#utility.yul\":1376:1742   */\n    tag_86:\n        /* \"#utility.yul\":1518:1521   */\n      0x00\n        /* \"#utility.yul\":1539:1606   */\n      tag_116\n        /* \"#utility.yul\":1603:1605   */\n      0x11\n        /* \"#utility.yul\":1598:1601   */\n      dup4\n        /* \"#utility.yul\":1539:1606   */\n      tag_84\n      jump\t// in\n    tag_116:\n        /* \"#utility.yul\":1532:1606   */\n      swap2\n      pop\n        /* \"#utility.yul\":1615:1708   */\n      tag_117\n        /* \"#utility.yul\":1704:1707   */\n      dup3\n        /* \"#utility.yul\":1615:1708   */\n      tag_85\n      jump\t// in\n    tag_117:\n        /* \"#utility.yul\":1733:1735   */\n      0x20\n        /* \"#utility.yul\":1728:1731   */\n      dup3\n        /* \"#utility.yul\":1724:1736   */\n      add\n        /* \"#utility.yul\":1717:1736   */\n      swap1\n      pop\n        /* \"#utility.yul\":1376:1742   */\n      swap2\n      swap1\n      pop\n      jump\t// out\n        /* \"#utility.yul\":1748:2167   */\n    tag_38:\n        /* \"#utility.yul\":1914:1918   */\n      0x00\n        /* \"#utility.yul\":1952:1954   */\n      0x20\n        /* \"#utility.yul\":1941:1950   */\n      dup3\n        /* \"#utility.yul\":1937:1955   */\n      add\n        /* \"#utility.yul\":1929:1955   */\n      swap1\n      pop\n        /* \"#utility.yul\":2001:2010   */\n      dup2\n        /* \"#utility.yul\":1995:1999   */\n      dup2\n        /* \"#utility.yul\":1991:2011   */\n      sub\n        /* \"#utility.yul\":1987:1988   */\n      0x00\n        /* \"#utility.yul\":1976:1985   */\n      dup4\n        /* \"#utility.yul\":1972:1989   */\n      add\n        /* \"#utility.yul\":1965:2012   */\n      mstore\n        /* \"#utility.yul\":2029:2160   */\n      tag_119\n        /* \"#utility.yul\":2155:2159   */\n      dup2\n        /* \"#utility.yul\":2029:2160   */\n      tag_86\n      jump\t// in\n    tag_119:\n        /* \"#utility.yul\":2021:2160   */\n      swap1\n      pop\n        /* \"#utility.yul\":1748:2167   */\n      swap2\n      swap1\n      pop\n      jump\t// out\n        /* \"#utility.yul\":2173:2353   */\n    tag_87:\n        /* \"#utility.yul\":2221:2298   */\n      0x4e487b7100000000000000000000000000000000000000000000000000000000\n        /* \"#utility.yul\":2218:2219   */\n      0x00\n        /* \"#utility.yul\":2211:2299   */\n      mstore\n        /* \"#utility.yul\":2318:2322   */\n      0x11\n        /* \"#utility.yul\":2315:2316   */\n      0x04\n        /* \"#utility.yul\":2308:2323   */\n      mstore\n        /* \"#utility.yul\":2342:2346   */\n      0x24\n        /* \"#utility.yul\":2339:2340   */\n      0x00\n        /* \"#utility.yul\":2332:2347   */\n      revert\n        /* \"#utility.yul\":2359:2550   */\n    tag_41:\n        /* \"#utility.yul\":2399:2402   */\n      0x00\n        /* \"#utility.yul\":2418:2438   */\n      tag_122\n        /* \"#utility.yul\":2436:2437   */\n      dup3\n        /* \"#utility.yul\":2418:2438   */\n      tag_79\n      jump\t// in\n    tag_122:\n        /* \"#utility.yul\":2413:2438   */\n      swap2\n      pop\n        /* \"#utility.yul\":2452:2472   */\n      tag_123\n        /* \"#utility.yul\":2470:2471   */\n      dup4\n        /* \"#utility.yul\":2452:2472   */\n      tag_79\n      jump\t// in\n    tag_123:\n        /* \"#utility.yul\":2447:2472   */\n      swap3\n      pop\n        /* \"#utility.yul\":2495:2496   */\n      dup3\n        /* \"#utility.yul\":2492:2493   */\n      dup3\n        /* \"#utility.yul\":2488:2497   */\n      add\n        /* \"#utility.yul\":2481:2497   */\n      swap1\n      pop\n        /* \"#utility.yul\":2516:2519   */\n      dup1\n        /* \"#utility.yul\":2513:2514   */\n      dup3\n        /* \"#utility.yul\":2510:2520   */\n      gt\n        /* \"#utility.yul\":2507:2543   */\n      iszero\n      tag_124\n      jumpi\n        /* \"#utility.yul\":2523:2541   */\n      tag_125\n      tag_87\n      jump\t// in\n    tag_125:\n        /* \"#utility.yul\":2507:2543   */\n    tag_124:\n        /* \"#utility.yul\":2359:2550   */\n      swap3\n      swap2\n      pop\n      pop\n      jump\t// out\n        /* \"#utility.yul\":2556:2736   */\n    tag_48:\n        /* \"#utility.yul\":2604:2681   */\n      0x4e487b7100000000000000000000000000000000000000000000000000000000\n        /* \"#utility.yul\":2601:2602   */\n      0x00\n        /* \"#utility.yul\":2594:2682   */\n      mstore\n        /* \"#utility.yul\":2701:2705   */\n      0x32\n        /* \"#utility.yul\":2698:2699   */\n      0x04\n        /* \"#utility.yul\":2691:2706   */\n      mstore\n        /* \"#utility.yul\":2725:2729   */\n      0x24\n        /* \"#utility.yul\":2722:2723   */\n      0x00\n        /* \"#utility.yul\":2715:2730   */\n      revert\n        /* \"#utility.yul\":2742:2922   */\n    tag_52:\n        /* \"#utility.yul\":2790:2867   */\n      0x4e487b7100000000000000000000000000000000000000000000000000000000\n        /* \"#utility.yul\":2787:2788   */\n      0x00\n        /* \"#utility.yul\":2780:2868   */\n      mstore\n        /* \"#utility.yul\":2887:2891   */\n      0x41\n        /* \"#utility.yul\":2884:2885   */\n      0x04\n        /* \"#utility.yul\":2877:2892   */\n      mstore\n        /* \"#utility.yul\":2911:2915   */\n      0x24\n        /* \"#utility.yul\":2908:2909   */\n      0x00\n        /* \"#utility.yul\":2901:2916   */\n      revert\n        /* \"#utility.yul\":2928:3338   */\n    tag_62:\n        /* \"#utility.yul\":2968:2975   */\n      0x00\n        /* \"#utility.yul\":2991:3011   */\n      tag_129\n        /* \"#utility.yul\":3009:3010   */\n      dup3\n        /* \"#utility.yul\":2991:3011   */\n      tag_79\n      jump\t// in\n    tag_129:\n        /* \"#utility.yul\":2986:3011   */\n      swap2\n      pop\n        /* \"#utility.yul\":3025:3045   */\n      tag_130\n        /* \"#utility.yul\":3043:3044   */\n      dup4\n        /* \"#utility.yul\":3025:3045   */\n      tag_79\n      jump\t// in\n    tag_130:\n        /* \"#utility.yul\":3020:3045   */\n      swap3\n      pop\n        /* \"#utility.yul\":3080:3081   */\n      dup3\n        /* \"#utility.yul\":3077:3078   */\n      dup3\n        /* \"#utility.yul\":3073:3082   */\n      mul\n        /* \"#utility.yul\":3102:3132   */\n      tag_131\n        /* \"#utility.yul\":3120:3131   */\n      dup2\n        /* \"#utility.yul\":3102:3132   */\n      tag_79\n      jump\t// in\n    tag_131:\n        /* \"#utility.yul\":3091:3132   */\n      swap2\n      pop\n        /* \"#utility.yul\":3281:3282   */\n      dup3\n        /* \"#utility.yul\":3272:3279   */\n      dup3\n        /* \"#utility.yul\":3268:3283   */\n      div\n        /* \"#utility.yul\":3265:3266   */\n      dup5\n        /* \"#utility.yul\":3262:3284   */\n      eq\n        /* \"#utility.yul\":3242:3243   */\n      dup4\n        /* \"#utility.yul\":3235:3244   */\n      iszero\n        /* \"#utility.yul\":3215:3298   */\n      or\n        /* \"#utility.yul\":3192:3331   */\n      tag_132\n      jumpi\n        /* \"#utility.yul\":3311:3329   */\n      tag_133\n      tag_87\n      jump\t// in\n    tag_133:\n        /* \"#utility.yul\":3192:3331   */\n    tag_132:\n        /* \"#utility.yul\":2976:3338   */\n      pop\n        /* \"#utility.yul\":2928:3338   */\n      swap3\n      swap2\n      pop\n      pop\n      jump\t// out\n        /* \"#utility.yul\":3344:3524   */\n    tag_88:\n        /* \"#utility.yul\":3392:3469   */\n      0x4e487b7100000000000000000000000000000000000000000000000000000000\n        /* \"#utility.yul\":3389:3390   */\n      0x00\n        /* \"#utility.yul\":3382:3470   */\n      mstore\n        /* \"#utility.yul\":3489:3493   */\n      0x12\n        /* \"#utility.yul\":3486:3487   */\n      0x04\n        /* \"#utility.yul\":3479:3494   */\n      mstore\n        /* \"#utility.yul\":3513:3517   */\n      0x24\n        /* \"#utility.yul\":3510:3511   */\n      0x00\n        /* \"#utility.yul\":3503:3518   */\n      revert\n        /* \"#utility.yul\":3530:3715   */\n    tag_64:\n        /* \"#utility.yul\":3570:3571   */\n      0x00\n        /* \"#utility.yul\":3587:3607   */\n      tag_136\n        /* \"#utility.yul\":3605:3606   */\n      dup3\n        /* \"#utility.yul\":3587:3607   */\n      tag_79\n      jump\t// in\n    tag_136:\n        /* \"#utility.yul\":3582:3607   */\n      swap2\n      pop\n        /* \"#utility.yul\":3621:3641   */\n      tag_137\n        /* \"#utility.yul\":3639:3640   */\n      dup4\n        /* \"#utility.yul\":3621:3641   */\n      tag_79\n      jump\t// in\n    tag_137:\n        /* \"#utility.yul\":3616:3641   */\n      swap3\n      pop\n        /* \"#utility.yul\":3660:3661   */\n      dup3\n        /* \"#utility.yul\":3650:3685   */\n      tag_138\n      jumpi\n        /* \"#utility.yul\":3665:3683   */\n      tag_139\n      tag_88\n      jump\t// in\n    tag_139:\n        /* \"#utility.yul\":3650:3685   */\n    tag_138:\n        /* \"#utility.yul\":3707:3708   */\n      dup3\n        /* \"#utility.yul\":3704:3705   */\n      dup3\n        /* \"#utility.yul\":3700:3709   */\n      div\n        /* \"#utility.yul\":3695:3709   */\n      swap1\n      pop\n        /* \"#utility.yul\":3530:3715   */\n      swap3\n      swap2\n      pop\n      pop\n      jump\t// out\n        /* \"#utility.yul\":3802:3919   */\n    tag_90:\n        /* \"#utility.yul\":3911:3912   */\n      0x00\n        /* \"#utility.yul\":3908:3909   */\n      dup1\n        /* \"#utility.yul\":3901:3913   */\n      revert\n        /* \"#utility.yul\":4048:4153   */\n    tag_92:\n        /* \"#utility.yul\":4084:4091   */\n      0x00\n        /* \"#utility.yul\":4124:4146   */\n      0xffffffffffffffffffff\n        /* \"#utility.yul\":4117:4122   */\n      dup3\n        /* \"#utility.yul\":4113:4147   */\n      and\n        /* \"#utility.yul\":4102:4147   */\n      swap1\n      pop\n        /* \"#utility.yul\":4048:4153   */\n      swap2\n      swap1\n      pop\n      jump\t// out\n        /* \"#utility.yul\":4159:4279   */\n    tag_93:\n        /* \"#utility.yul\":4231:4254   */\n      tag_145\n        /* \"#utility.yul\":4248:4253   */\n      dup2\n        /* \"#utility.yul\":4231:4254   */\n      tag_92\n      jump\t// in\n    tag_145:\n        /* \"#utility.yul\":4224:4229   */\n      dup2\n        /* \"#utility.yul\":4221:4255   */\n      eq\n        /* \"#utility.yul\":4211:4273   */\n      tag_146\n      jumpi\n        /* \"#utility.yul\":4269:4270   */\n      0x00\n        /* \"#utility.yul\":4266:4267   */\n      dup1\n        /* \"#utility.yul\":4259:4271   */\n      revert\n        /* \"#utility.yul\":4211:4273   */\n    tag_146:\n        /* \"#utility.yul\":4159:4279   */\n      pop\n      jump\t// out\n        /* \"#utility.yul\":4285:4426   */\n    tag_94:\n        /* \"#utility.yul\":4341:4346   */\n      0x00\n        /* \"#utility.yul\":4372:4378   */\n      dup2\n        /* \"#utility.yul\":4366:4379   */\n      mload\n        /* \"#utility.yul\":4357:4379   */\n      swap1\n      pop\n        /* \"#utility.yul\":4388:4420   */\n      tag_148\n        /* \"#utility.yul\":4414:4419   */\n      dup2\n        /* \"#utility.yul\":4388:4420   */\n      tag_93\n      jump\t// in\n    tag_148:\n        /* \"#utility.yul\":4285:4426   */\n      swap3\n      swap2\n      pop\n      pop\n      jump\t// out\n        /* \"#utility.yul\":4432:4508   */\n    tag_95:\n        /* \"#utility.yul\":4468:4475   */\n      0x00\n        /* \"#utility.yul\":4497:4502   */\n      dup2\n        /* \"#utility.yul\":4486:4502   */\n      swap1\n      pop\n        /* \"#utility.yul\":4432:4508   */\n      swap2\n      swap1\n      pop\n      jump\t// out\n        /* \"#utility.yul\":4514:4634   */\n    tag_96:\n        /* \"#utility.yul\":4586:4609   */\n      tag_151\n        /* \"#utility.yul\":4603:4608   */\n      dup2\n        /* \"#utility.yul\":4586:4609   */\n      tag_95\n      jump\t// in\n    tag_151:\n        /* \"#utility.yul\":4579:4584   */\n      dup2\n        /* \"#utility.yul\":4576:4610   */\n      eq\n        /* \"#utility.yul\":4566:4628   */\n      tag_152\n      jumpi\n        /* \"#utility.yul\":4624:4625   */\n      0x00\n        /* \"#utility.yul\":4621:4622   */\n      dup1\n        /* \"#utility.yul\":4614:4626   */\n      revert\n        /* \"#utility.yul\":4566:4628   */\n    tag_152:\n        /* \"#utility.yul\":4514:4634   */\n      pop\n      jump\t// out\n        /* \"#utility.yul\":4640:4781   */\n    tag_97:\n        /* \"#utility.yul\":4696:4701   */\n      0x00\n        /* \"#utility.yul\":4727:4733   */\n      dup2\n        /* \"#utility.yul\":4721:4734   */\n      mload\n        /* \"#utility.yul\":4712:4734   */\n      swap1\n      pop\n        /* \"#utility.yul\":4743:4775   */\n      tag_154\n        /* \"#utility.yul\":4769:4774   */\n      dup2\n        /* \"#utility.yul\":4743:4775   */\n      tag_96\n      jump\t// in\n    tag_154:\n        /* \"#utility.yul\":4640:4781   */\n      swap3\n      swap2\n      pop\n      pop\n      jump\t// out\n        /* \"#utility.yul\":4787:4909   */\n    tag_98:\n        /* \"#utility.yul\":4860:4884   */\n      tag_156\n        /* \"#utility.yul\":4878:4883   */\n      dup2\n        /* \"#utility.yul\":4860:4884   */\n      tag_79\n      jump\t// in\n    tag_156:\n        /* \"#utility.yul\":4853:4858   */\n      dup2\n        /* \"#utility.yul\":4850:4885   */\n      eq\n        /* \"#utility.yul\":4840:4903   */\n      tag_157\n      jumpi\n        /* \"#utility.yul\":4899:4900   */\n      0x00\n        /* \"#utility.yul\":4896:4897   */\n      dup1\n        /* \"#utility.yul\":4889:4901   */\n      revert\n        /* \"#utility.yul\":4840:4903   */\n    tag_157:\n        /* \"#utility.yul\":4787:4909   */\n      pop\n      jump\t// out\n        /* \"#utility.yul\":4915:5058   */\n    tag_99:\n        /* \"#utility.yul\":4972:4977   */\n      0x00\n        /* \"#utility.yul\":5003:5009   */\n      dup2\n        /* \"#utility.yul\":4997:5010   */\n      mload\n        /* \"#utility.yul\":4988:5010   */\n      swap1\n      pop\n        /* \"#utility.yul\":5019:5052   */\n      tag_159\n        /* \"#utility.yul\":5046:5051   */\n      dup2\n        /* \"#utility.yul\":5019:5052   */\n      tag_98\n      jump\t// in\n    tag_159:\n        /* \"#utility.yul\":4915:5058   */\n      swap3\n      swap2\n      pop\n      pop\n      jump\t// out\n        /* \"#utility.yul\":5064:6035   */\n    tag_69:\n        /* \"#utility.yul\":5167:5173   */\n      0x00\n        /* \"#utility.yul\":5175:5181   */\n      dup1\n        /* \"#utility.yul\":5183:5189   */\n      0x00\n        /* \"#utility.yul\":5191:5197   */\n      dup1\n        /* \"#utility.yul\":5199:5205   */\n      0x00\n        /* \"#utility.yul\":5248:5251   */\n      0xa0\n        /* \"#utility.yul\":5236:5245   */\n      dup7\n        /* \"#utility.yul\":5227:5234   */\n      dup9\n        /* \"#utility.yul\":5223:5246   */\n      sub\n        /* \"#utility.yul\":5219:5252   */\n      slt\n        /* \"#utility.yul\":5216:5336   */\n      iszero\n      tag_161\n      jumpi\n        /* \"#utility.yul\":5255:5334   */\n      tag_162\n      tag_90\n      jump\t// in\n    tag_162:\n        /* \"#utility.yul\":5216:5336   */\n    tag_161:\n        /* \"#utility.yul\":5375:5376   */\n      0x00\n        /* \"#utility.yul\":5400:5463   */\n      tag_163\n        /* \"#utility.yul\":5455:5462   */\n      dup9\n        /* \"#utility.yul\":5446:5452   */\n      dup3\n        /* \"#utility.yul\":5435:5444   */\n      dup10\n        /* \"#utility.yul\":5431:5453   */\n      add\n        /* \"#utility.yul\":5400:5463   */\n      tag_94\n      jump\t// in\n    tag_163:\n        /* \"#utility.yul\":5390:5463   */\n      swap6\n      pop\n        /* \"#utility.yul\":5346:5473   */\n      pop\n        /* \"#utility.yul\":5512:5514   */\n      0x20\n        /* \"#utility.yul\":5538:5601   */\n      tag_164\n        /* \"#utility.yul\":5593:5600   */\n      dup9\n        /* \"#utility.yul\":5584:5590   */\n      dup3\n        /* \"#utility.yul\":5573:5582   */\n      dup10\n        /* \"#utility.yul\":5569:5591   */\n      add\n        /* \"#utility.yul\":5538:5601   */\n      tag_97\n      jump\t// in\n    tag_164:\n        /* \"#utility.yul\":5528:5601   */\n      swap5\n      pop\n        /* \"#utility.yul\":5483:5611   */\n      pop\n        /* \"#utility.yul\":5650:5652   */\n      0x40\n        /* \"#utility.yul\":5676:5740   */\n      tag_165\n        /* \"#utility.yul\":5732:5739   */\n      dup9\n        /* \"#utility.yul\":5723:5729   */\n      dup3\n        /* \"#utility.yul\":5712:5721   */\n      dup10\n        /* \"#utility.yul\":5708:5730   */\n      add\n        /* \"#utility.yul\":5676:5740   */\n      tag_99\n      jump\t// in\n    tag_165:\n        /* \"#utility.yul\":5666:5740   */\n      swap4\n      pop\n        /* \"#utility.yul\":5621:5750   */\n      pop\n        /* \"#utility.yul\":5789:5791   */\n      0x60\n        /* \"#utility.yul\":5815:5879   */\n      tag_166\n        /* \"#utility.yul\":5871:5878   */\n      dup9\n        /* \"#utility.yul\":5862:5868   */\n      dup3\n        /* \"#utility.yul\":5851:5860   */\n      dup10\n        /* \"#utility.yul\":5847:5869   */\n      add\n        /* \"#utility.yul\":5815:5879   */\n      tag_99\n      jump\t// in\n    tag_166:\n        /* \"#utility.yul\":5805:5879   */\n      swap3\n      pop\n        /* \"#utility.yul\":5760:5889   */\n      pop\n        /* \"#utility.yul\":5928:5931   */\n      0x80\n        /* \"#utility.yul\":5955:6018   */\n      tag_167\n        /* \"#utility.yul\":6010:6017   */\n      dup9\n        /* \"#utility.yul\":6001:6007   */\n      dup3\n        /* \"#utility.yul\":5990:5999   */\n      dup10\n        /* \"#utility.yul\":5986:6008   */\n      add\n        /* \"#utility.yul\":5955:6018   */\n      tag_94\n      jump\t// in\n    tag_167:\n        /* \"#utility.yul\":5945:6018   */\n      swap2\n      pop\n        /* \"#utility.yul\":5899:6028   */\n      pop\n        /* \"#utility.yul\":5064:6035   */\n      swap3\n      swap6\n      pop\n      swap3\n      swap6\n      swap1\n      swap4\n      pop\n      jump\t// out\n        /* \"#utility.yul\":6041:6597   */\n    tag_71:\n        /* \"#utility.yul\":6080:6087   */\n      0x00\n        /* \"#utility.yul\":6103:6122   */\n      tag_169\n        /* \"#utility.yul\":6120:6121   */\n      dup3\n        /* \"#utility.yul\":6103:6122   */\n      tag_95\n      jump\t// in\n    tag_169:\n        /* \"#utility.yul\":6098:6122   */\n      swap2\n      pop\n        /* \"#utility.yul\":6136:6155   */\n      tag_170\n        /* \"#utility.yul\":6153:6154   */\n      dup4\n        /* \"#utility.yul\":6136:6155   */\n      tag_95\n      jump\t// in\n    tag_170:\n        /* \"#utility.yul\":6131:6155   */\n      swap3\n      pop\n        /* \"#utility.yul\":6190:6191   */\n      dup3\n        /* \"#utility.yul\":6187:6188   */\n      dup3\n        /* \"#utility.yul\":6183:6192   */\n      mul\n        /* \"#utility.yul\":6212:6241   */\n      tag_171\n        /* \"#utility.yul\":6229:6240   */\n      dup2\n        /* \"#utility.yul\":6212:6241   */\n      tag_95\n      jump\t// in\n    tag_171:\n        /* \"#utility.yul\":6201:6241   */\n      swap2\n      pop\n        /* \"#utility.yul\":6299:6365   */\n      0x8000000000000000000000000000000000000000000000000000000000000000\n        /* \"#utility.yul\":6296:6297   */\n      dup5\n        /* \"#utility.yul\":6293:6366   */\n      eq\n        /* \"#utility.yul\":6289:6290   */\n      0x00\n        /* \"#utility.yul\":6286:6287   */\n      dup5\n        /* \"#utility.yul\":6282:6291   */\n      slt\n        /* \"#utility.yul\":6278:6367   */\n      and\n        /* \"#utility.yul\":6275:6390   */\n      iszero\n      tag_172\n      jumpi\n        /* \"#utility.yul\":6370:6388   */\n      tag_173\n      tag_87\n      jump\t// in\n    tag_173:\n        /* \"#utility.yul\":6275:6390   */\n    tag_172:\n        /* \"#utility.yul\":6540:6541   */\n      dup3\n        /* \"#utility.yul\":6531:6538   */\n      dup3\n        /* \"#utility.yul\":6526:6542   */\n      sdiv\n        /* \"#utility.yul\":6523:6524   */\n      dup5\n        /* \"#utility.yul\":6520:6543   */\n      eq\n        /* \"#utility.yul\":6500:6501   */\n      dup4\n        /* \"#utility.yul\":6493:6502   */\n      iszero\n        /* \"#utility.yul\":6473:6557   */\n      or\n        /* \"#utility.yul\":6450:6590   */\n      tag_174\n      jumpi\n        /* \"#utility.yul\":6570:6588   */\n      tag_175\n      tag_87\n      jump\t// in\n    tag_175:\n        /* \"#utility.yul\":6450:6590   */\n    tag_174:\n        /* \"#utility.yul\":6088:6597   */\n      pop\n        /* \"#utility.yul\":6041:6597   */\n      swap3\n      swap2\n      pop\n      pop\n      jump\t// out\n\n    auxdata: 0xa2646970667358221220dd7917da50e5639bbaf184a8cd77a74343f2c741496a4d9c506589ff05fc750064736f6c63430008190033\n}\n",
				"bytecode": {
					"linkReferences": {},
					"object": "60a0604052475f553480156011575f80fd5b503373ffffffffffffffffffffffffffffffffffffffff1660808173ffffffffffffffffffffffffffffffffffffffff168152505060805161095161005e5f395f61039901526109515ff3fe60806040526004361061004d575f3560e01c80633b874521146100665780636b69a5921461007c578063b60d4288146100a6578063b69ef8a8146100b0578063dba6335f146100da5761005c565b3661005c5761005a610104565b005b610064610104565b005b348015610071575f80fd5b5061007a610242565b005b348015610087575f80fd5b50610090610386565b60405161009d919061054d565b60405180910390f35b6100ae610104565b005b3480156100bb575f80fd5b506100c4610392565b6040516100d1919061054d565b60405180910390f35b3480156100e5575f80fd5b506100ee610397565b6040516100fb91906105a5565b60405180910390f35b674563918244f40000610116346103bb565b11610156576040517f08c379a000000000000000000000000000000000000000000000000000000000815260040161014d90610618565b60405180910390fd5b600133908060018154018082558091505060019003905f5260205f20015f9091909190916101000a81548173ffffffffffffffffffffffffffffffffffffffff021916908373ffffffffffffffffffffffffffffffffffffffff1602179055503460025f3373ffffffffffffffffffffffffffffffffffffffff1673ffffffffffffffffffffffffffffffffffffffff1681526020019081526020015f20546101ff9190610663565b60025f3373ffffffffffffffffffffffffffffffffffffffff1673ffffffffffffffffffffffffffffffffffffffff1681526020019081526020015f2081905550565b5f5b6001805490508110156102e0575f6001828154811061026657610265610696565b5b905f5260205f20015f9054906101000a900473ffffffffffffffffffffffffffffffffffffffff1690505f60025f8373ffffffffffffffffffffffffffffffffffffffff1673ffffffffffffffffffffffffffffffffffffffff1681526020019081526020015f2081905550508080600101915050610244565b505f67ffffffffffffffff8111156102fb576102fa6106c3565b5b6040519080825280602002602001820160405280156103295781602001602082028036833780820191505090505b506001908051906020019061033f929190610493565b503373ffffffffffffffffffffffffffffffffffffffff166108fc4790811502906040515f60405180830381858888f19350505050158015610383573d5f803e3d5ffd5b50565b674563918244f4000081565b5f5481565b7f000000000000000000000000000000000000000000000000000000000000000081565b5f80670de0b6b3a7640000836103cf6103ee565b6103d991906106f0565b6103e3919061075e565b905080915050919050565b5f8073694aa1769357215de4fac081bf1f309adc32530690505f8173ffffffffffffffffffffffffffffffffffffffff1663feaf968c6040518163ffffffff1660e01b815260040160a060405180830381865afa158015610451573d5f803e3d5ffd5b505050506040513d601f19601f82011682018060405250810190610475919061082e565b5050509150506402540be4008161048c91906108a5565b9250505090565b828054828255905f5260205f20908101928215610509579160200282015b82811115610508578251825f6101000a81548173ffffffffffffffffffffffffffffffffffffffff021916908373ffffffffffffffffffffffffffffffffffffffff160217905550916020019190600101906104b1565b5b509050610516919061051a565b5090565b5b80821115610531575f815f90555060010161051b565b5090565b5f819050919050565b61054781610535565b82525050565b5f6020820190506105605f83018461053e565b92915050565b5f73ffffffffffffffffffffffffffffffffffffffff82169050919050565b5f61058f82610566565b9050919050565b61059f81610585565b82525050565b5f6020820190506105b85f830184610596565b92915050565b5f82825260208201905092915050565b7f646f6e27742073656e6420656e6f7567680000000000000000000000000000005f82015250565b5f6106026011836105be565b915061060d826105ce565b602082019050919050565b5f6020820190508181035f83015261062f816105f6565b9050919050565b7f4e487b71000000000000000000000000000000000000000000000000000000005f52601160045260245ffd5b5f61066d82610535565b915061067883610535565b92508282019050808211156106905761068f610636565b5b92915050565b7f4e487b71000000000000000000000000000000000000000000000000000000005f52603260045260245ffd5b7f4e487b71000000000000000000000000000000000000000000000000000000005f52604160045260245ffd5b5f6106fa82610535565b915061070583610535565b925082820261071381610535565b9150828204841483151761072a57610729610636565b5b5092915050565b7f4e487b71000000000000000000000000000000000000000000000000000000005f52601260045260245ffd5b5f61076882610535565b915061077383610535565b92508261078357610782610731565b5b828204905092915050565b5f80fd5b5f69ffffffffffffffffffff82169050919050565b6107b081610792565b81146107ba575f80fd5b50565b5f815190506107cb816107a7565b92915050565b5f819050919050565b6107e3816107d1565b81146107ed575f80fd5b50565b5f815190506107fe816107da565b92915050565b61080d81610535565b8114610817575f80fd5b50565b5f8151905061082881610804565b92915050565b5f805f805f60a086880312156108475761084661078e565b5b5f610854888289016107bd565b9550506020610865888289016107f0565b94505060406108768882890161081a565b93505060606108878882890161081a565b9250506080610898888289016107bd565b9150509295509295909350565b5f6108af826107d1565b91506108ba836107d1565b92508282026108c8816107d1565b91507f800000000000000000000000000000000000000000000000000000000000000084145f841216156108ff576108fe610636565b5b828205841483151761091457610913610636565b5b509291505056fea2646970667358221220dd7917da50e5639bbaf184a8cd77a74343f2c741496a4d9c506589ff05fc750064736f6c63430008190033",
					"opcodes": "PUSH1 0xA0 PUSH1 0x40 MSTORE SELFBALANCE PUSH0 SSTORE CALLVALUE DUP1 ISZERO PUSH1 0x11 JUMPI PUSH0 DUP1 REVERT JUMPDEST POP CALLER PUSH20 0xFFFFFFFFFFFFFFFFFFFFFFFFFFFFFFFFFFFFFFFF AND PUSH1 0x80 DUP2 PUSH20 0xFFFFFFFFFFFFFFFFFFFFFFFFFFFFFFFFFFFFFFFF AND DUP2 MSTORE POP POP PUSH1 0x80 MLOAD PUSH2 0x951 PUSH2 0x5E PUSH0 CODECOPY PUSH0 PUSH2 0x399 ADD MSTORE PUSH2 0x951 PUSH0 RETURN INVALID PUSH1 0x80 PUSH1 0x40 MSTORE PUSH1 0x4 CALLDATASIZE LT PUSH2 0x4D JUMPI PUSH0 CALLDATALOAD PUSH1 0xE0 SHR DUP1 PUSH4 0x3B874521 EQ PUSH2 0x66 JUMPI DUP1 PUSH4 0x6B69A592 EQ PUSH2 0x7C JUMPI DUP1 PUSH4 0xB60D4288 EQ PUSH2 0xA6 JUMPI DUP1 PUSH4 0xB69EF8A8 EQ PUSH2 0xB0 JUMPI DUP1 PUSH4 0xDBA6335F EQ PUSH2 0xDA JUMPI PUSH2 0x5C JUMP JUMPDEST CALLDATASIZE PUSH2 0x5C JUMPI PUSH2 0x5A PUSH2 0x104 JUMP JUMPDEST STOP JUMPDEST PUSH2 0x64 PUSH2 0x104 JUMP JUMPDEST STOP JUMPDEST CALLVALUE DUP1 ISZERO PUSH2 0x71 JUMPI PUSH0 DUP1 REVERT JUMPDEST POP PUSH2 0x7A PUSH2 0x242 JUMP JUMPDEST STOP JUMPDEST CALLVALUE DUP1 ISZERO PUSH2 0x87 JUMPI PUSH0 DUP1 REVERT JUMPDEST POP PUSH2 0x90 PUSH2 0x386 JUMP JUMPDEST PUSH1 0x40 MLOAD PUSH2 0x9D SWAP2 SWAP1 PUSH2 0x54D JUMP JUMPDEST PUSH1 0x40 MLOAD DUP1 SWAP2 SUB SWAP1 RETURN JUMPDEST PUSH2 0xAE PUSH2 0x104 JUMP JUMPDEST STOP JUMPDEST CALLVALUE DUP1 ISZERO PUSH2 0xBB JUMPI PUSH0 DUP1 REVERT JUMPDEST POP PUSH2 0xC4 PUSH2 0x392 JUMP JUMPDEST PUSH1 0x40 MLOAD PUSH2 0xD1 SWAP2 SWAP1 PUSH2 0x54D JUMP JUMPDEST PUSH1 0x40 MLOAD DUP1 SWAP2 SUB SWAP1 RETURN JUMPDEST CALLVALUE DUP1 ISZERO PUSH2 0xE5 JUMPI PUSH0 DUP1 REVERT JUMPDEST POP PUSH2 0xEE PUSH2 0x397 JUMP JUMPDEST PUSH1 0x40 MLOAD PUSH2 0xFB SWAP2 SWAP1 PUSH2 0x5A5 JUMP JUMPDEST PUSH1 0x40 MLOAD DUP1 SWAP2 SUB SWAP1 RETURN JUMPDEST PUSH8 0x4563918244F40000 PUSH2 0x116 CALLVALUE PUSH2 0x3BB JUMP JUMPDEST GT PUSH2 0x156 JUMPI PUSH1 0x40 MLOAD PUSH32 0x8C379A000000000000000000000000000000000000000000000000000000000 DUP2 MSTORE PUSH1 0x4 ADD PUSH2 0x14D SWAP1 PUSH2 0x618 JUMP JUMPDEST PUSH1 0x40 MLOAD DUP1 SWAP2 SUB SWAP1 REVERT JUMPDEST PUSH1 0x1 CALLER SWAP1 DUP1 PUSH1 0x1 DUP2 SLOAD ADD DUP1 DUP3 SSTORE DUP1 SWAP2 POP POP PUSH1 0x1 SWAP1 SUB SWAP1 PUSH0 MSTORE PUSH1 0x20 PUSH0 KECCAK256 ADD PUSH0 SWAP1 SWAP2 SWAP1 SWAP2 SWAP1 SWAP2 PUSH2 0x100 EXP DUP2 SLOAD DUP2 PUSH20 0xFFFFFFFFFFFFFFFFFFFFFFFFFFFFFFFFFFFFFFFF MUL NOT AND SWAP1 DUP4 PUSH20 0xFFFFFFFFFFFFFFFFFFFFFFFFFFFFFFFFFFFFFFFF AND MUL OR SWAP1 SSTORE POP CALLVALUE PUSH1 0x2 PUSH0 CALLER PUSH20 0xFFFFFFFFFFFFFFFFFFFFFFFFFFFFFFFFFFFFFFFF AND PUSH20 0xFFFFFFFFFFFFFFFFFFFFFFFFFFFFFFFFFFFFFFFF AND DUP2 MSTORE PUSH1 0x20 ADD SWAP1 DUP2 MSTORE PUSH1 0x20 ADD PUSH0 KECCAK256 SLOAD PUSH2 0x1FF SWAP2 SWAP1 PUSH2 0x663 JUMP JUMPDEST PUSH1 0x2 PUSH0 CALLER PUSH20 0xFFFFFFFFFFFFFFFFFFFFFFFFFFFFFFFFFFFFFFFF AND PUSH20 0xFFFFFFFFFFFFFFFFFFFFFFFFFFFFFFFFFFFFFFFF AND DUP2 MSTORE PUSH1 0x20 ADD SWAP1 DUP2 MSTORE PUSH1 0x20 ADD PUSH0 KECCAK256 DUP2 SWAP1 SSTORE POP JUMP JUMPDEST PUSH0 JUMPDEST PUSH1 0x1 DUP1 SLOAD SWAP1 POP DUP2 LT ISZERO PUSH2 0x2E0 JUMPI PUSH0 PUSH1 0x1 DUP3 DUP2 SLOAD DUP2 LT PUSH2 0x266 JUMPI PUSH2 0x265 PUSH2 0x696 JUMP JUMPDEST JUMPDEST SWAP1 PUSH0 MSTORE PUSH1 0x20 PUSH0 KECCAK256 ADD PUSH0 SWAP1 SLOAD SWAP1 PUSH2 0x100 EXP SWAP1 DIV PUSH20 0xFFFFFFFFFFFFFFFFFFFFFFFFFFFFFFFFFFFFFFFF AND SWAP1 POP PUSH0 PUSH1 0x2 PUSH0 DUP4 PUSH20 0xFFFFFFFFFFFFFFFFFFFFFFFFFFFFFFFFFFFFFFFF AND PUSH20 0xFFFFFFFFFFFFFFFFFFFFFFFFFFFFFFFFFFFFFFFF AND DUP2 MSTORE PUSH1 0x20 ADD SWAP1 DUP2 MSTORE PUSH1 0x20 ADD PUSH0 KECCAK256 DUP2 SWAP1 SSTORE POP POP DUP1 DUP1 PUSH1 0x1 ADD SWAP2 POP POP PUSH2 0x244 JUMP JUMPDEST POP PUSH0 PUSH8 0xFFFFFFFFFFFFFFFF DUP2 GT ISZERO PUSH2 0x2FB JUMPI PUSH2 0x2FA PUSH2 0x6C3 JUMP JUMPDEST JUMPDEST PUSH1 0x40 MLOAD SWAP1 DUP1 DUP3 MSTORE DUP1 PUSH1 0x20 MUL PUSH1 0x20 ADD DUP3 ADD PUSH1 0x40 MSTORE DUP1 ISZERO PUSH2 0x329 JUMPI DUP2 PUSH1 0x20 ADD PUSH1 0x20 DUP3 MUL DUP1 CALLDATASIZE DUP4 CALLDATACOPY DUP1 DUP3 ADD SWAP2 POP POP SWAP1 POP JUMPDEST POP PUSH1 0x1 SWAP1 DUP1 MLOAD SWAP1 PUSH1 0x20 ADD SWAP1 PUSH2 0x33F SWAP3 SWAP2 SWAP1 PUSH2 0x493 JUMP JUMPDEST POP CALLER PUSH20 0xFFFFFFFFFFFFFFFFFFFFFFFFFFFFFFFFFFFFFFFF AND PUSH2 0x8FC SELFBALANCE SWAP1 DUP2 ISZERO MUL SWAP1 PUSH1 0x40 MLOAD PUSH0 PUSH1 0x40 MLOAD DUP1 DUP4 SUB DUP2 DUP6 DUP9 DUP9 CALL SWAP4 POP POP POP POP ISZERO DUP1 ISZERO PUSH2 0x383 JUMPI RETURNDATASIZE PUSH0 DUP1 RETURNDATACOPY RETURNDATASIZE PUSH0 REVERT JUMPDEST POP JUMP JUMPDEST PUSH8 0x4563918244F40000 DUP2 JUMP JUMPDEST PUSH0 SLOAD DUP2 JUMP JUMPDEST PUSH32 0x0 DUP2 JUMP JUMPDEST PUSH0 DUP1 PUSH8 0xDE0B6B3A7640000 DUP4 PUSH2 0x3CF PUSH2 0x3EE JUMP JUMPDEST PUSH2 0x3D9 SWAP2 SWAP1 PUSH2 0x6F0 JUMP JUMPDEST PUSH2 0x3E3 SWAP2 SWAP1 PUSH2 0x75E JUMP JUMPDEST SWAP1 POP DUP1 SWAP2 POP POP SWAP2 SWAP1 POP JUMP JUMPDEST PUSH0 DUP1 PUSH20 0x694AA1769357215DE4FAC081BF1F309ADC325306 SWAP1 POP PUSH0 DUP2 PUSH20 0xFFFFFFFFFFFFFFFFFFFFFFFFFFFFFFFFFFFFFFFF AND PUSH4 0xFEAF968C PUSH1 0x40 MLOAD DUP2 PUSH4 0xFFFFFFFF AND PUSH1 0xE0 SHL DUP2 MSTORE PUSH1 0x4 ADD PUSH1 0xA0 PUSH1 0x40 MLOAD DUP1 DUP4 SUB DUP2 DUP7 GAS STATICCALL ISZERO DUP1 ISZERO PUSH2 0x451 JUMPI RETURNDATASIZE PUSH0 DUP1 RETURNDATACOPY RETURNDATASIZE PUSH0 REVERT JUMPDEST POP POP POP POP PUSH1 0x40 MLOAD RETURNDATASIZE PUSH1 0x1F NOT PUSH1 0x1F DUP3 ADD AND DUP3 ADD DUP1 PUSH1 0x40 MSTORE POP DUP2 ADD SWAP1 PUSH2 0x475 SWAP2 SWAP1 PUSH2 0x82E JUMP JUMPDEST POP POP POP SWAP2 POP POP PUSH5 0x2540BE400 DUP2 PUSH2 0x48C SWAP2 SWAP1 PUSH2 0x8A5 JUMP JUMPDEST SWAP3 POP POP POP SWAP1 JUMP JUMPDEST DUP3 DUP1 SLOAD DUP3 DUP3 SSTORE SWAP1 PUSH0 MSTORE PUSH1 0x20 PUSH0 KECCAK256 SWAP1 DUP2 ADD SWAP3 DUP3 ISZERO PUSH2 0x509 JUMPI SWAP2 PUSH1 0x20 MUL DUP3 ADD JUMPDEST DUP3 DUP2 GT ISZERO PUSH2 0x508 JUMPI DUP3 MLOAD DUP3 PUSH0 PUSH2 0x100 EXP DUP2 SLOAD DUP2 PUSH20 0xFFFFFFFFFFFFFFFFFFFFFFFFFFFFFFFFFFFFFFFF MUL NOT AND SWAP1 DUP4 PUSH20 0xFFFFFFFFFFFFFFFFFFFFFFFFFFFFFFFFFFFFFFFF AND MUL OR SWAP1 SSTORE POP SWAP2 PUSH1 0x20 ADD SWAP2 SWAP1 PUSH1 0x1 ADD SWAP1 PUSH2 0x4B1 JUMP JUMPDEST JUMPDEST POP SWAP1 POP PUSH2 0x516 SWAP2 SWAP1 PUSH2 0x51A JUMP JUMPDEST POP SWAP1 JUMP JUMPDEST JUMPDEST DUP1 DUP3 GT ISZERO PUSH2 0x531 JUMPI PUSH0 DUP2 PUSH0 SWAP1 SSTORE POP PUSH1 0x1 ADD PUSH2 0x51B JUMP JUMPDEST POP SWAP1 JUMP JUMPDEST PUSH0 DUP2 SWAP1 POP SWAP2 SWAP1 POP JUMP JUMPDEST PUSH2 0x547 DUP2 PUSH2 0x535 JUMP JUMPDEST DUP3 MSTORE POP POP JUMP JUMPDEST PUSH0 PUSH1 0x20 DUP3 ADD SWAP1 POP PUSH2 0x560 PUSH0 DUP4 ADD DUP5 PUSH2 0x53E JUMP JUMPDEST SWAP3 SWAP2 POP POP JUMP JUMPDEST PUSH0 PUSH20 0xFFFFFFFFFFFFFFFFFFFFFFFFFFFFFFFFFFFFFFFF DUP3 AND SWAP1 POP SWAP2 SWAP1 POP JUMP JUMPDEST PUSH0 PUSH2 0x58F DUP3 PUSH2 0x566 JUMP JUMPDEST SWAP1 POP SWAP2 SWAP1 POP JUMP JUMPDEST PUSH2 0x59F DUP2 PUSH2 0x585 JUMP JUMPDEST DUP3 MSTORE POP POP JUMP JUMPDEST PUSH0 PUSH1 0x20 DUP3 ADD SWAP1 POP PUSH2 0x5B8 PUSH0 DUP4 ADD DUP5 PUSH2 0x596 JUMP JUMPDEST SWAP3 SWAP2 POP POP JUMP JUMPDEST PUSH0 DUP3 DUP3 MSTORE PUSH1 0x20 DUP3 ADD SWAP1 POP SWAP3 SWAP2 POP POP JUMP JUMPDEST PUSH32 0x646F6E27742073656E6420656E6F756768000000000000000000000000000000 PUSH0 DUP3 ADD MSTORE POP JUMP JUMPDEST PUSH0 PUSH2 0x602 PUSH1 0x11 DUP4 PUSH2 0x5BE JUMP JUMPDEST SWAP2 POP PUSH2 0x60D DUP3 PUSH2 0x5CE JUMP JUMPDEST PUSH1 0x20 DUP3 ADD SWAP1 POP SWAP2 SWAP1 POP JUMP JUMPDEST PUSH0 PUSH1 0x20 DUP3 ADD SWAP1 POP DUP2 DUP2 SUB PUSH0 DUP4 ADD MSTORE PUSH2 0x62F DUP2 PUSH2 0x5F6 JUMP JUMPDEST SWAP1 POP SWAP2 SWAP1 POP JUMP JUMPDEST PUSH32 0x4E487B7100000000000000000000000000000000000000000000000000000000 PUSH0 MSTORE PUSH1 0x11 PUSH1 0x4 MSTORE PUSH1 0x24 PUSH0 REVERT JUMPDEST PUSH0 PUSH2 0x66D DUP3 PUSH2 0x535 JUMP JUMPDEST SWAP2 POP PUSH2 0x678 DUP4 PUSH2 0x535 JUMP JUMPDEST SWAP3 POP DUP3 DUP3 ADD SWAP1 POP DUP1 DUP3 GT ISZERO PUSH2 0x690 JUMPI PUSH2 0x68F PUSH2 0x636 JUMP JUMPDEST JUMPDEST SWAP3 SWAP2 POP POP JUMP JUMPDEST PUSH32 0x4E487B7100000000000000000000000000000000000000000000000000000000 PUSH0 MSTORE PUSH1 0x32 PUSH1 0x4 MSTORE PUSH1 0x24 PUSH0 REVERT JUMPDEST PUSH32 0x4E487B7100000000000000000000000000000000000000000000000000000000 PUSH0 MSTORE PUSH1 0x41 PUSH1 0x4 MSTORE PUSH1 0x24 PUSH0 REVERT JUMPDEST PUSH0 PUSH2 0x6FA DUP3 PUSH2 0x535 JUMP JUMPDEST SWAP2 POP PUSH2 0x705 DUP4 PUSH2 0x535 JUMP JUMPDEST SWAP3 POP DUP3 DUP3 MUL PUSH2 0x713 DUP2 PUSH2 0x535 JUMP JUMPDEST SWAP2 POP DUP3 DUP3 DIV DUP5 EQ DUP4 ISZERO OR PUSH2 0x72A JUMPI PUSH2 0x729 PUSH2 0x636 JUMP JUMPDEST JUMPDEST POP SWAP3 SWAP2 POP POP JUMP JUMPDEST PUSH32 0x4E487B7100000000000000000000000000000000000000000000000000000000 PUSH0 MSTORE PUSH1 0x12 PUSH1 0x4 MSTORE PUSH1 0x24 PUSH0 REVERT JUMPDEST PUSH0 PUSH2 0x768 DUP3 PUSH2 0x535 JUMP JUMPDEST SWAP2 POP PUSH2 0x773 DUP4 PUSH2 0x535 JUMP JUMPDEST SWAP3 POP DUP3 PUSH2 0x783 JUMPI PUSH2 0x782 PUSH2 0x731 JUMP JUMPDEST JUMPDEST DUP3 DUP3 DIV SWAP1 POP SWAP3 SWAP2 POP POP JUMP JUMPDEST PUSH0 DUP1 REVERT JUMPDEST PUSH0 PUSH10 0xFFFFFFFFFFFFFFFFFFFF DUP3 AND SWAP1 POP SWAP2 SWAP1 POP JUMP JUMPDEST PUSH2 0x7B0 DUP2 PUSH2 0x792 JUMP JUMPDEST DUP2 EQ PUSH2 0x7BA JUMPI PUSH0 DUP1 REVERT JUMPDEST POP JUMP JUMPDEST PUSH0 DUP2 MLOAD SWAP1 POP PUSH2 0x7CB DUP2 PUSH2 0x7A7 JUMP JUMPDEST SWAP3 SWAP2 POP POP JUMP JUMPDEST PUSH0 DUP2 SWAP1 POP SWAP2 SWAP1 POP JUMP JUMPDEST PUSH2 0x7E3 DUP2 PUSH2 0x7D1 JUMP JUMPDEST DUP2 EQ PUSH2 0x7ED JUMPI PUSH0 DUP1 REVERT JUMPDEST POP JUMP JUMPDEST PUSH0 DUP2 MLOAD SWAP1 POP PUSH2 0x7FE DUP2 PUSH2 0x7DA JUMP JUMPDEST SWAP3 SWAP2 POP POP JUMP JUMPDEST PUSH2 0x80D DUP2 PUSH2 0x535 JUMP JUMPDEST DUP2 EQ PUSH2 0x817 JUMPI PUSH0 DUP1 REVERT JUMPDEST POP JUMP JUMPDEST PUSH0 DUP2 MLOAD SWAP1 POP PUSH2 0x828 DUP2 PUSH2 0x804 JUMP JUMPDEST SWAP3 SWAP2 POP POP JUMP JUMPDEST PUSH0 DUP1 PUSH0 DUP1 PUSH0 PUSH1 0xA0 DUP7 DUP9 SUB SLT ISZERO PUSH2 0x847 JUMPI PUSH2 0x846 PUSH2 0x78E JUMP JUMPDEST JUMPDEST PUSH0 PUSH2 0x854 DUP9 DUP3 DUP10 ADD PUSH2 0x7BD JUMP JUMPDEST SWAP6 POP POP PUSH1 0x20 PUSH2 0x865 DUP9 DUP3 DUP10 ADD PUSH2 0x7F0 JUMP JUMPDEST SWAP5 POP POP PUSH1 0x40 PUSH2 0x876 DUP9 DUP3 DUP10 ADD PUSH2 0x81A JUMP JUMPDEST SWAP4 POP POP PUSH1 0x60 PUSH2 0x887 DUP9 DUP3 DUP10 ADD PUSH2 0x81A JUMP JUMPDEST SWAP3 POP POP PUSH1 0x80 PUSH2 0x898 DUP9 DUP3 DUP10 ADD PUSH2 0x7BD JUMP JUMPDEST SWAP2 POP POP SWAP3 SWAP6 POP SWAP3 SWAP6 SWAP1 SWAP4 POP JUMP JUMPDEST PUSH0 PUSH2 0x8AF DUP3 PUSH2 0x7D1 JUMP JUMPDEST SWAP2 POP PUSH2 0x8BA DUP4 PUSH2 0x7D1 JUMP JUMPDEST SWAP3 POP DUP3 DUP3 MUL PUSH2 0x8C8 DUP2 PUSH2 0x7D1 JUMP JUMPDEST SWAP2 POP PUSH32 0x8000000000000000000000000000000000000000000000000000000000000000 DUP5 EQ PUSH0 DUP5 SLT AND ISZERO PUSH2 0x8FF JUMPI PUSH2 0x8FE PUSH2 0x636 JUMP JUMPDEST JUMPDEST DUP3 DUP3 SDIV DUP5 EQ DUP4 ISZERO OR PUSH2 0x914 JUMPI PUSH2 0x913 PUSH2 0x636 JUMP JUMPDEST JUMPDEST POP SWAP3 SWAP2 POP POP JUMP INVALID LOG2 PUSH5 0x6970667358 0x22 SLT KECCAK256 0xDD PUSH26 0x17DA50E5639BBAF184A8CD77A74343F2C741496A4D9C506589FF SDIV 0xFC PUSH22 0x64736F6C6343000819003300000000000000000000 "
				},
				"gasEstimates": {
					"creation": {
						"codeDepositCost": "477000",
						"executionCost": "infinite",
						"totalCost": "infinite"
					},
					"external": {
						"": "infinite",
						"MINIMUM_USD()": "325",
						"balance()": "2468",
						"fund()": "infinite",
						"i_owner()": "infinite",
						"withdrow()": "infinite"
					}
				},
				"methodIdentifiers": {
					"MINIMUM_USD()": "6b69a592",
					"balance()": "b69ef8a8",
					"fund()": "b60d4288",
					"i_owner()": "dba6335f",
					"withdrow()": "3b874521"
				}
			},
			"storageLayout": {
				"storage": [
					{
						"astId": 111,
						"contract": "FundMe.sol:FundMe",
						"label": "balance",
						"offset": 0,
						"slot": "0",
						"type": "t_uint256"
					},
					{
						"astId": 117,
						"contract": "FundMe.sol:FundMe",
						"label": "funders",
						"offset": 0,
						"slot": "1",
						"type": "t_array(t_address)dyn_storage"
					},
					{
						"astId": 121,
						"contract": "FundMe.sol:FundMe",
						"label": "addressToAmount",
						"offset": 0,
						"slot": "2",
						"type": "t_mapping(t_address,t_uint256)"
					}
				],
				"types": {
					"t_address": {
						"encoding": "inplace",
						"label": "address",
						"numberOfBytes": "20"
					},
					"t_array(t_address)dyn_storage": {
						"base": "t_address",
						"encoding": "dynamic_array",
						"label": "address[]",
						"numberOfBytes": "32"
					},
					"t_mapping(t_address,t_uint256)": {
						"encoding": "mapping",
						"key": "t_address",
						"label": "mapping(address => uint256)",
						"numberOfBytes": "32",
						"value": "t_uint256"
					},
					"t_uint256": {
						"encoding": "inplace",
						"label": "uint256",
						"numberOfBytes": "32"
					}
				}
			},
			"userdoc": {
				"kind": "user",
				"methods": {},
				"version": 1
			}
		}
	}
}